{
  "contractName": "MishkaDinos",
  "abi": [
    {
      "inputs": [
        {
          "internalType": "string",
          "name": "baseURI",
          "type": "string"
        }
      ],
      "stateMutability": "nonpayable",
      "type": "constructor"
    },
    {
      "anonymous": false,
      "inputs": [
        {
          "indexed": true,
          "internalType": "address",
          "name": "owner",
          "type": "address"
        },
        {
          "indexed": true,
          "internalType": "address",
          "name": "approved",
          "type": "address"
        },
        {
          "indexed": true,
          "internalType": "uint256",
          "name": "tokenId",
          "type": "uint256"
        }
      ],
      "name": "Approval",
      "type": "event"
    },
    {
      "anonymous": false,
      "inputs": [
        {
          "indexed": true,
          "internalType": "address",
          "name": "owner",
          "type": "address"
        },
        {
          "indexed": true,
          "internalType": "address",
          "name": "operator",
          "type": "address"
        },
        {
          "indexed": false,
          "internalType": "bool",
          "name": "approved",
          "type": "bool"
        }
      ],
      "name": "ApprovalForAll",
      "type": "event"
    },
    {
      "anonymous": false,
      "inputs": [
        {
          "indexed": true,
          "internalType": "uint256",
          "name": "_tokenId",
          "type": "uint256"
        },
        {
          "indexed": false,
          "internalType": "string",
          "name": "_key",
          "type": "string"
        },
        {
          "indexed": false,
          "internalType": "string",
          "name": "_value",
          "type": "string"
        }
      ],
      "name": "AttributeChanged",
      "type": "event"
    },
    {
      "anonymous": false,
      "inputs": [
        {
          "indexed": true,
          "internalType": "uint256",
          "name": "id",
          "type": "uint256"
        }
      ],
      "name": "CreateChibi",
      "type": "event"
    },
    {
      "anonymous": false,
      "inputs": [
        {
          "indexed": true,
          "internalType": "address",
          "name": "previousOwner",
          "type": "address"
        },
        {
          "indexed": true,
          "internalType": "address",
          "name": "newOwner",
          "type": "address"
        }
      ],
      "name": "OwnershipTransferred",
      "type": "event"
    },
    {
      "anonymous": false,
      "inputs": [
        {
          "indexed": false,
          "internalType": "address",
          "name": "account",
          "type": "address"
        }
      ],
      "name": "Paused",
      "type": "event"
    },
    {
      "anonymous": false,
      "inputs": [
        {
          "indexed": true,
          "internalType": "address",
          "name": "from",
          "type": "address"
        },
        {
          "indexed": true,
          "internalType": "address",
          "name": "to",
          "type": "address"
        },
        {
          "indexed": true,
          "internalType": "uint256",
          "name": "tokenId",
          "type": "uint256"
        }
      ],
      "name": "Transfer",
      "type": "event"
    },
    {
      "anonymous": false,
      "inputs": [
        {
          "indexed": false,
          "internalType": "address",
          "name": "account",
          "type": "address"
        }
      ],
      "name": "Unpaused",
      "type": "event"
    },
    {
      "inputs": [],
      "name": "MAX_ITEMS",
      "outputs": [
        {
          "internalType": "uint256",
          "name": "",
          "type": "uint256"
        }
      ],
      "stateMutability": "view",
      "type": "function",
      "constant": true
    },
    {
      "inputs": [],
      "name": "MAX_MINT",
      "outputs": [
        {
          "internalType": "uint256",
          "name": "",
          "type": "uint256"
        }
      ],
      "stateMutability": "view",
      "type": "function",
      "constant": true
    },
    {
      "inputs": [],
      "name": "MAX_MINT_PRESALE",
      "outputs": [
        {
          "internalType": "uint256",
          "name": "",
          "type": "uint256"
        }
      ],
      "stateMutability": "view",
      "type": "function",
      "constant": true
    },
    {
      "inputs": [],
      "name": "MAX_PRESALE_ITEMS",
      "outputs": [
        {
          "internalType": "uint256",
          "name": "",
          "type": "uint256"
        }
      ],
      "stateMutability": "view",
      "type": "function",
      "constant": true
    },
    {
      "inputs": [],
      "name": "MAX_RESERVE",
      "outputs": [
        {
          "internalType": "uint256",
          "name": "",
          "type": "uint256"
        }
      ],
      "stateMutability": "view",
      "type": "function",
      "constant": true
    },
    {
      "inputs": [],
      "name": "PRICE",
      "outputs": [
        {
          "internalType": "uint256",
          "name": "",
          "type": "uint256"
        }
      ],
      "stateMutability": "view",
      "type": "function",
      "constant": true
    },
    {
      "inputs": [],
      "name": "RENAME_PRICE",
      "outputs": [
        {
          "internalType": "uint256",
          "name": "",
          "type": "uint256"
        }
      ],
      "stateMutability": "view",
      "type": "function",
      "constant": true
    },
    {
      "inputs": [
        {
          "internalType": "address",
          "name": "to",
          "type": "address"
        },
        {
          "internalType": "uint256",
          "name": "tokenId",
          "type": "uint256"
        }
      ],
      "name": "approve",
      "outputs": [],
      "stateMutability": "nonpayable",
      "type": "function"
    },
    {
      "inputs": [
        {
          "internalType": "address",
          "name": "owner",
          "type": "address"
        }
      ],
      "name": "balanceOf",
      "outputs": [
        {
          "internalType": "uint256",
          "name": "",
          "type": "uint256"
        }
      ],
      "stateMutability": "view",
      "type": "function",
      "constant": true
    },
    {
      "inputs": [],
      "name": "baseTokenURI",
      "outputs": [
        {
          "internalType": "string",
          "name": "",
          "type": "string"
        }
      ],
      "stateMutability": "view",
      "type": "function",
      "constant": true
    },
    {
      "inputs": [
        {
          "internalType": "uint256",
          "name": "tokenId",
          "type": "uint256"
        }
      ],
      "name": "burn",
      "outputs": [],
      "stateMutability": "nonpayable",
      "type": "function"
    },
    {
      "inputs": [],
      "name": "creatorAddress",
      "outputs": [
        {
          "internalType": "address",
          "name": "",
          "type": "address"
        }
      ],
      "stateMutability": "view",
      "type": "function",
      "constant": true
    },
    {
      "inputs": [],
      "name": "devAddress",
      "outputs": [
        {
          "internalType": "address",
          "name": "",
          "type": "address"
        }
      ],
      "stateMutability": "view",
      "type": "function",
      "constant": true
    },
    {
      "inputs": [
        {
          "internalType": "uint256",
          "name": "tokenId",
          "type": "uint256"
        }
      ],
      "name": "getApproved",
      "outputs": [
        {
          "internalType": "address",
          "name": "",
          "type": "address"
        }
      ],
      "stateMutability": "view",
      "type": "function",
      "constant": true
    },
    {
      "inputs": [
        {
          "internalType": "address",
          "name": "owner",
          "type": "address"
        },
        {
          "internalType": "address",
          "name": "operator",
          "type": "address"
        }
      ],
      "name": "isApprovedForAll",
      "outputs": [
        {
          "internalType": "bool",
          "name": "",
          "type": "bool"
        }
      ],
      "stateMutability": "view",
      "type": "function",
      "constant": true
    },
    {
      "inputs": [],
      "name": "name",
      "outputs": [
        {
          "internalType": "string",
          "name": "",
          "type": "string"
        }
      ],
      "stateMutability": "view",
      "type": "function",
      "constant": true
    },
    {
      "inputs": [],
      "name": "owner",
      "outputs": [
        {
          "internalType": "address",
          "name": "",
          "type": "address"
        }
      ],
      "stateMutability": "view",
      "type": "function",
      "constant": true
    },
    {
      "inputs": [
        {
          "internalType": "uint256",
          "name": "tokenId",
          "type": "uint256"
        }
      ],
      "name": "ownerOf",
      "outputs": [
        {
          "internalType": "address",
          "name": "",
          "type": "address"
        }
      ],
      "stateMutability": "view",
      "type": "function",
      "constant": true
    },
    {
      "inputs": [],
      "name": "paused",
      "outputs": [
        {
          "internalType": "bool",
          "name": "",
          "type": "bool"
        }
      ],
      "stateMutability": "view",
      "type": "function",
      "constant": true
    },
    {
      "inputs": [],
      "name": "renounceOwnership",
      "outputs": [],
      "stateMutability": "nonpayable",
      "type": "function"
    },
    {
      "inputs": [
        {
          "internalType": "address",
          "name": "from",
          "type": "address"
        },
        {
          "internalType": "address",
          "name": "to",
          "type": "address"
        },
        {
          "internalType": "uint256",
          "name": "tokenId",
          "type": "uint256"
        }
      ],
      "name": "safeTransferFrom",
      "outputs": [],
      "stateMutability": "nonpayable",
      "type": "function"
    },
    {
      "inputs": [
        {
          "internalType": "address",
          "name": "from",
          "type": "address"
        },
        {
          "internalType": "address",
          "name": "to",
          "type": "address"
        },
        {
          "internalType": "uint256",
          "name": "tokenId",
          "type": "uint256"
        },
        {
          "internalType": "bytes",
          "name": "_data",
          "type": "bytes"
        }
      ],
      "name": "safeTransferFrom",
      "outputs": [],
      "stateMutability": "nonpayable",
      "type": "function"
    },
    {
      "inputs": [
        {
          "internalType": "address",
          "name": "operator",
          "type": "address"
        },
        {
          "internalType": "bool",
          "name": "approved",
          "type": "bool"
        }
      ],
      "name": "setApprovalForAll",
      "outputs": [],
      "stateMutability": "nonpayable",
      "type": "function"
    },
    {
      "inputs": [],
      "name": "symbol",
      "outputs": [
        {
          "internalType": "string",
          "name": "",
          "type": "string"
        }
      ],
      "stateMutability": "view",
      "type": "function",
      "constant": true
    },
    {
      "inputs": [
        {
          "internalType": "uint256",
          "name": "index",
          "type": "uint256"
        }
      ],
      "name": "tokenByIndex",
      "outputs": [
        {
          "internalType": "uint256",
          "name": "",
          "type": "uint256"
        }
      ],
      "stateMutability": "view",
      "type": "function",
      "constant": true
    },
    {
      "inputs": [
        {
          "internalType": "address",
          "name": "owner",
          "type": "address"
        },
        {
          "internalType": "uint256",
          "name": "index",
          "type": "uint256"
        }
      ],
      "name": "tokenOfOwnerByIndex",
      "outputs": [
        {
          "internalType": "uint256",
          "name": "",
          "type": "uint256"
        }
      ],
      "stateMutability": "view",
      "type": "function",
      "constant": true
    },
    {
      "inputs": [
        {
          "internalType": "uint256",
          "name": "tokenId",
          "type": "uint256"
        }
      ],
      "name": "tokenURI",
      "outputs": [
        {
          "internalType": "string",
          "name": "",
          "type": "string"
        }
      ],
      "stateMutability": "view",
      "type": "function",
      "constant": true
    },
    {
      "inputs": [],
      "name": "totalSupply",
      "outputs": [
        {
          "internalType": "uint256",
          "name": "",
          "type": "uint256"
        }
      ],
      "stateMutability": "view",
      "type": "function",
      "constant": true
    },
    {
      "inputs": [
        {
          "internalType": "address",
          "name": "from",
          "type": "address"
        },
        {
          "internalType": "address",
          "name": "to",
          "type": "address"
        },
        {
          "internalType": "uint256",
          "name": "tokenId",
          "type": "uint256"
        }
      ],
      "name": "transferFrom",
      "outputs": [],
      "stateMutability": "nonpayable",
      "type": "function"
    },
    {
      "inputs": [
        {
          "internalType": "address",
          "name": "newOwner",
          "type": "address"
        }
      ],
      "name": "transferOwnership",
      "outputs": [],
      "stateMutability": "nonpayable",
      "type": "function"
    },
    {
      "inputs": [],
      "name": "totalMint",
      "outputs": [
        {
          "internalType": "uint256",
          "name": "",
          "type": "uint256"
        }
      ],
      "stateMutability": "view",
      "type": "function",
      "constant": true
    },
    {
      "inputs": [
        {
          "internalType": "uint256",
          "name": "_count",
          "type": "uint256"
        },
        {
          "internalType": "address",
          "name": "_to",
          "type": "address"
        }
      ],
      "name": "mintReserve",
      "outputs": [],
      "stateMutability": "nonpayable",
      "type": "function"
    },
    {
      "inputs": [
        {
          "internalType": "address",
          "name": "_to",
          "type": "address"
        },
        {
          "internalType": "uint256",
          "name": "_count",
          "type": "uint256"
        }
      ],
      "name": "presaleMint",
      "outputs": [],
      "stateMutability": "payable",
      "type": "function",
      "payable": true
    },
    {
      "inputs": [
        {
          "internalType": "address",
          "name": "_to",
          "type": "address"
        },
        {
          "internalType": "uint256",
          "name": "_count",
          "type": "uint256"
        }
      ],
      "name": "mint",
      "outputs": [],
      "stateMutability": "payable",
      "type": "function",
      "payable": true
    },
    {
      "inputs": [
        {
          "internalType": "uint256",
          "name": "_count",
          "type": "uint256"
        }
      ],
      "name": "price",
      "outputs": [
        {
          "internalType": "uint256",
          "name": "",
          "type": "uint256"
        }
      ],
      "stateMutability": "pure",
      "type": "function",
      "constant": true
    },
    {
      "inputs": [
        {
          "internalType": "string",
          "name": "baseURI",
          "type": "string"
        }
      ],
      "name": "setBaseURI",
      "outputs": [],
      "stateMutability": "nonpayable",
      "type": "function"
    },
    {
      "inputs": [
        {
          "internalType": "address",
          "name": "_owner",
          "type": "address"
        }
      ],
      "name": "walletOfOwner",
      "outputs": [
        {
          "internalType": "uint256[]",
          "name": "",
          "type": "uint256[]"
        }
      ],
      "stateMutability": "view",
      "type": "function",
      "constant": true
    },
    {
      "inputs": [
        {
          "internalType": "bool",
          "name": "val",
          "type": "bool"
        }
      ],
      "name": "pause",
      "outputs": [],
      "stateMutability": "nonpayable",
      "type": "function"
    },
    {
      "inputs": [],
      "name": "startPresale",
      "outputs": [],
      "stateMutability": "nonpayable",
      "type": "function"
    },
    {
      "inputs": [],
      "name": "startSale",
      "outputs": [],
      "stateMutability": "nonpayable",
      "type": "function"
    },
    {
      "inputs": [
        {
          "internalType": "uint256",
          "name": "tokenId",
          "type": "uint256"
        },
        {
          "internalType": "string",
          "name": "key",
          "type": "string"
        },
        {
          "internalType": "string",
          "name": "value",
          "type": "string"
        }
      ],
      "name": "changeAttribute",
      "outputs": [],
      "stateMutability": "payable",
      "type": "function",
      "payable": true
    },
    {
      "inputs": [],
      "name": "withdrawAll",
      "outputs": [],
      "stateMutability": "payable",
      "type": "function",
      "payable": true
    },
    {
      "inputs": [
        {
          "internalType": "bytes4",
          "name": "interfaceId",
          "type": "bytes4"
        }
      ],
      "name": "supportsInterface",
      "outputs": [
        {
          "internalType": "bool",
          "name": "",
          "type": "bool"
        }
      ],
      "stateMutability": "view",
      "type": "function",
      "constant": true
    }
  ],
  "bytecode": "0x60806040523480156200001157600080fd5b506040516200325838038062003258833981016040819052620000349162000412565b604080518082018252600c81526b4d6973686b612044494e4f5360a01b60208083019182528351808501909452600b84526a4d4953484b4144494e4f5360a81b9084015281519192916200008b916000916200036c565b508051620000a19060019060208401906200036c565b505050620000be620000b8620000f460201b60201c565b620000f8565b600a805460ff60a01b19169055620000d6816200014a565b620000e26001620001b2565b50600c805461ffff191690556200053b565b3390565b600a80546001600160a01b038381166001600160a01b0319831681179093556040519116919082907f8be0079c531659141344cd1fd0a4f28419497f9722a3daafe3b4186f6b6457e090600090a35050565b600a546001600160a01b03163314620001995760405162461bcd60e51b815260206004820181905260248201526000805160206200323883398151915260448201526064015b60405180910390fd5b8051620001ae90600d9060208401906200036c565b5050565b600a546001600160a01b03163314620001fd5760405162461bcd60e51b8152602060048201819052602482015260008051602062003238833981519152604482015260640162000190565b6001811515141562000219576200021362000226565b62000223565b62000223620002d5565b50565b6200023a600a54600160a01b900460ff1690565b156200027c5760405162461bcd60e51b815260206004820152601060248201526f14185d5cd8589b194e881c185d5cd95960821b604482015260640162000190565b600a805460ff60a01b1916600160a01b1790557f62e78cea01bee320cd4e420270b5ea74000d11b0c9f74754ebdbfc544b05a258620002b83390565b6040516001600160a01b03909116815260200160405180910390a1565b620002e9600a54600160a01b900460ff1690565b620003375760405162461bcd60e51b815260206004820152601460248201527f5061757361626c653a206e6f7420706175736564000000000000000000000000604482015260640162000190565b600a805460ff60a01b191690557f5db9ee0a495bf2e6ff9c91a7834c1ba4fdd244a5e8aa4e537bd38aeae4b073aa33620002b8565b8280546200037a90620004e8565b90600052602060002090601f0160209004810192826200039e5760008555620003e9565b82601f10620003b957805160ff1916838001178555620003e9565b82800160010185558215620003e9579182015b82811115620003e9578251825591602001919060010190620003cc565b50620003f7929150620003fb565b5090565b5b80821115620003f75760008155600101620003fc565b6000602080838503121562000425578182fd5b82516001600160401b03808211156200043c578384fd5b818501915085601f83011262000450578384fd5b81518181111562000465576200046562000525565b604051601f8201601f19908116603f0116810190838211818310171562000490576200049062000525565b816040528281528886848701011115620004a8578687fd5b8693505b82841015620004cb5784840186015181850187015292850192620004ac565b82841115620004dc57868684830101525b98975050505050505050565b600281046001821680620004fd57607f821691505b602082108114156200051f57634e487b7160e01b600052602260045260246000fd5b50919050565b634e487b7160e01b600052604160045260246000fd5b612ced806200054b6000396000f3fe60806040526004361061025c5760003560e01c80636352211e11610144578063b66a0e5d116100b6578063e927fc5c1161007a578063e927fc5c146103e0578063e985e9c5146106ab578063ed16e3a6146106f4578063eff31e9e14610707578063f0292a031461071c578063f2fde38b146107315761025c565b8063b66a0e5d14610626578063b88d4fde1461063b578063c87b56dd1461065b578063d547cfb71461067b578063d773154f146106905761025c565b8063853828b611610108578063853828b61461059d5780638d859f3e146105a55780638da5cb5b146105c057806395d89b41146105de5780639b6a6709146105f3578063a22cb465146106065761025c565b80636352211e1461051357806370a0823114610533578063715018a6146105535780637e95eac414610568578063850dd0911461057d5761025c565b80632f745c59116101dd578063438b6300116101a1578063438b63001461045b5780634f6ccce71461048857806355f804b3146104a857806357d4c4ee146104c857806359a7715a146104de5780635c975abb146104f35761025c565b80632f745c59146103c05780633ad10ef6146103e057806340c10f191461040857806342842e0e1461041b57806342966c681461043b5761025c565b8063095ea7b311610224578063095ea7b3146103275780630ffc67281461034757806318160ddd1461036b57806323b872dd1461038057806326a49e37146103a05761025c565b806301ffc9a71461026157806302329a291461029657806304c98b2b146102b857806306fdde03146102cd578063081812fc146102ef575b600080fd5b34801561026d57600080fd5b5061028161027c36600461281c565b610751565b60405190151581526020015b60405180910390f35b3480156102a257600080fd5b506102b66102b1366004612802565b610764565b005b3480156102c457600080fd5b506102b66107ba565b3480156102d957600080fd5b506102e26107f3565b60405161028d9190612a07565b3480156102fb57600080fd5b5061030f61030a366004612887565b610885565b6040516001600160a01b03909116815260200161028d565b34801561033357600080fd5b506102b66103423660046127d9565b61091a565b34801561035357600080fd5b5061035d6103e881565b60405190815260200161028d565b34801561037757600080fd5b5060085461035d565b34801561038c57600080fd5b506102b661039b3660046126fc565b610a30565b3480156103ac57600080fd5b5061035d6103bb366004612887565b610a62565b3480156103cc57600080fd5b5061035d6103db3660046127d9565b610a75565b3480156103ec57600080fd5b5061030f73362c378e0855545c521b62bdedeff54a8a4c677a81565b6102b66104163660046127d9565b610b0b565b34801561042757600080fd5b506102b66104363660046126fc565b610d0a565b34801561044757600080fd5b506102b6610456366004612887565b610d25565b34801561046757600080fd5b5061047b6104763660046126b0565b610d9c565b60405161028d91906129c3565b34801561049457600080fd5b5061035d6104a3366004612887565b610e5a565b3480156104b457600080fd5b506102b66104c3366004612854565b610efb565b3480156104d457600080fd5b5061035d61271081565b3480156104ea57600080fd5b5061035d610f3c565b3480156104ff57600080fd5b50610281600a54600160a01b900460ff1690565b34801561051f57600080fd5b5061030f61052e366004612887565b610f4b565b34801561053f57600080fd5b5061035d61054e3660046126b0565b610fc2565b34801561055f57600080fd5b506102b6611049565b34801561057457600080fd5b5061035d600281565b34801561058957600080fd5b506102b661059836600461289f565b61107f565b6102b6611128565b3480156105b157600080fd5b5061035d66d529ae9e86000081565b3480156105cc57600080fd5b50600a546001600160a01b031661030f565b3480156105ea57600080fd5b506102e26111ae565b6102b66106013660046127d9565b6111bd565b34801561061257600080fd5b506102b66106213660046127b0565b611342565b34801561063257600080fd5b506102b6611414565b34801561064757600080fd5b506102b6610656366004612737565b61144f565b34801561066757600080fd5b506102e2610676366004612887565b611481565b34801561068757600080fd5b506102e261155c565b34801561069c57600080fd5b5061035d662386f26fc1000081565b3480156106b757600080fd5b506102816106c63660046126ca565b6001600160a01b03918216600090815260056020908152604080832093909416825291909152205460ff1690565b6102b66107023660046128c1565b6115ea565b34801561071357600080fd5b5061035d606481565b34801561072857600080fd5b5061035d601481565b34801561073d57600080fd5b506102b661074c3660046126b0565b6116fe565b600061075c82611796565b90505b919050565b600a546001600160a01b031633146107975760405162461bcd60e51b815260040161078e90612abd565b60405180910390fd5b600181151514156107af576107aa6117bb565b6107b7565b6107b7611866565b50565b600a546001600160a01b031633146107e45760405162461bcd60e51b815260040161078e90612abd565b600c805460ff19166001179055565b60606000805461080290612bf5565b80601f016020809104026020016040519081016040528092919081815260200182805461082e90612bf5565b801561087b5780601f106108505761010080835404028352916020019161087b565b820191906000526020600020905b81548152906001019060200180831161085e57829003601f168201915b5050505050905090565b6000818152600260205260408120546001600160a01b03166108fe5760405162461bcd60e51b815260206004820152602c60248201527f4552433732313a20617070726f76656420717565727920666f72206e6f6e657860448201526b34b9ba32b73a103a37b5b2b760a11b606482015260840161078e565b506000908152600460205260409020546001600160a01b031690565b600061092582610f4b565b9050806001600160a01b0316836001600160a01b031614156109935760405162461bcd60e51b815260206004820152602160248201527f4552433732313a20617070726f76616c20746f2063757272656e74206f776e656044820152603960f91b606482015260840161078e565b336001600160a01b03821614806109af57506109af81336106c6565b610a215760405162461bcd60e51b815260206004820152603860248201527f4552433732313a20617070726f76652063616c6c6572206973206e6f74206f7760448201527f6e6572206e6f7220617070726f76656420666f7220616c6c0000000000000000606482015260840161078e565b610a2b83836118f0565b505050565b610a3b335b8261195e565b610a575760405162461bcd60e51b815260040161078e90612b16565b610a2b838383611a55565b600061075c66d529ae9e86000083611c00565b6000610a8083610fc2565b8210610ae25760405162461bcd60e51b815260206004820152602b60248201527f455243373231456e756d657261626c653a206f776e657220696e646578206f7560448201526a74206f6620626f756e647360a81b606482015260840161078e565b506001600160a01b03919091166000908152600660209081526040808320938352929052205490565b612710610b16611c0c565b1115610b345760405162461bcd60e51b815260040161078e90612af2565b600a546001600160a01b03163314610b9957610b59600a54600160a01b900460ff1690565b15610b995760405162461bcd60e51b815260206004820152601060248201526f14185d5cd8589b194e881c185d5cd95960821b604482015260640161078e565b6000610ba3611c0c565b600c5490915060ff610100909104161515600114610c035760405162461bcd60e51b815260206004820152601860248201527f53616c6520686173206e6f742079657420737461727465640000000000000000604482015260640161078e565b612710811115610c255760405162461bcd60e51b815260040161078e90612af2565b612710610c328383612b67565b1115610c505760405162461bcd60e51b815260040161078e90612a9a565b6014821115610c925760405162461bcd60e51b815260206004820152600e60248201526d22bc31b2b2b23990373ab6b132b960911b604482015260640161078e565b610c9b82610a62565b341015610cde5760405162461bcd60e51b815260206004820152601160248201527056616c75652062656c6f7720707269636560781b604482015260640161078e565b60005b82811015610d0457610cf284611c17565b80610cfc81612c30565b915050610ce1565b50505050565b610a2b8383836040518060200160405280600081525061144f565b610d2e33610a35565b610d935760405162461bcd60e51b815260206004820152603060248201527f4552433732314275726e61626c653a2063616c6c6572206973206e6f74206f7760448201526f1b995c881b9bdc88185c1c1c9bdd995960821b606482015260840161078e565b6107b781611c6a565b60606000610da983610fc2565b905060008167ffffffffffffffff811115610dd457634e487b7160e01b600052604160045260246000fd5b604051908082528060200260200182016040528015610dfd578160200160208202803683370190505b50905060005b82811015610e5257610e158582610a75565b828281518110610e3557634e487b7160e01b600052603260045260246000fd5b602090810291909101015280610e4a81612c30565b915050610e03565b509392505050565b6000610e6560085490565b8210610ec85760405162461bcd60e51b815260206004820152602c60248201527f455243373231456e756d657261626c653a20676c6f62616c20696e646578206f60448201526b7574206f6620626f756e647360a01b606482015260840161078e565b60088281548110610ee957634e487b7160e01b600052603260045260246000fd5b90600052602060002001549050919050565b600a546001600160a01b03163314610f255760405162461bcd60e51b815260040161078e90612abd565b8051610f3890600d90602084019061255b565b5050565b6000610f46611c0c565b905090565b6000818152600260205260408120546001600160a01b03168061075c5760405162461bcd60e51b815260206004820152602960248201527f4552433732313a206f776e657220717565727920666f72206e6f6e657869737460448201526832b73a103a37b5b2b760b91b606482015260840161078e565b60006001600160a01b03821661102d5760405162461bcd60e51b815260206004820152602a60248201527f4552433732313a2062616c616e636520717565727920666f7220746865207a65604482015269726f206164647265737360b01b606482015260840161078e565b506001600160a01b031660009081526003602052604090205490565b600a546001600160a01b031633146110735760405162461bcd60e51b815260040161078e90612abd565b61107d6000611d11565b565b600a546001600160a01b031633146110a95760405162461bcd60e51b815260040161078e90612abd565b60006110b3611c0c565b90506127108111156110d75760405162461bcd60e51b815260040161078e90612af2565b6127106110e48483612b67565b11156111025760405162461bcd60e51b815260040161078e90612a9a565b60005b83811015610d045761111683611c17565b8061112081612c30565b915050611105565b600a546001600160a01b031633146111525760405162461bcd60e51b815260040161078e90612abd565b478061115d57600080fd5b61119073362c378e0855545c521b62bdedeff54a8a4c677a61118b6064611185856028611c00565b90611d63565b611d6f565b6107b773362c378e0855545c521b62bdedeff54a8a4c677a47611d6f565b60606001805461080290612bf5565b60006111c7611c0c565b600c5490915060ff1615156001146112215760405162461bcd60e51b815260206004820152601b60248201527f50726573616c6520686173206e6f742079657420737461727465640000000000604482015260640161078e565b6103e88111156112635760405162461bcd60e51b815260206004820152600d60248201526c141c995cd85b1948195b991959609a1b604482015260640161078e565b6103e86112708383612b67565b111561128e5760405162461bcd60e51b815260040161078e90612a9a565b60028211156112d05760405162461bcd60e51b815260206004820152600e60248201526d22bc31b2b2b23990373ab6b132b960911b604482015260640161078e565b6112d982610a62565b34101561131c5760405162461bcd60e51b815260206004820152601160248201527056616c75652062656c6f7720707269636560781b604482015260640161078e565b60005b82811015610d045761133084611c17565b8061133a81612c30565b91505061131f565b6001600160a01b03821633141561139b5760405162461bcd60e51b815260206004820152601960248201527f4552433732313a20617070726f766520746f2063616c6c657200000000000000604482015260640161078e565b3360008181526005602090815260408083206001600160a01b0387168085529252909120805460ff1916841515179055906001600160a01b03167f17307eab39ab6107e8899845ad3d59bd9653f200f220920489ca2b5937696c3183604051611408911515815260200190565b60405180910390a35050565b600a546001600160a01b0316331461143e5760405162461bcd60e51b815260040161078e90612abd565b600c805461ff001916610100179055565b611459338361195e565b6114755760405162461bcd60e51b815260040161078e90612b16565b610d0484848484611e05565b6000818152600260205260409020546060906001600160a01b03166115005760405162461bcd60e51b815260206004820152602f60248201527f4552433732314d657461646174613a2055524920717565727920666f72206e6f60448201526e3732bc34b9ba32b73a103a37b5b2b760891b606482015260840161078e565b600061150a611e38565b9050600081511161152a5760405180602001604052806000815250611555565b8061153484611e47565b604051602001611545929190612957565b6040516020818303038152906040525b9392505050565b600d805461156990612bf5565b80601f016020809104026020016040519081016040528092919081815260200182805461159590612bf5565b80156115e25780601f106115b7576101008083540402835291602001916115e2565b820191906000526020600020905b8154815290600101906020018083116115c557829003601f168201915b505050505081565b60006115f584610f4b565b9050336001600160a01b0382161461164f5760405162461bcd60e51b815260206004820152601760248201527f54686973206973206e6f7420796f75722043686962692e000000000000000000604482015260640161078e565b34662386f26fc1000081146116bd5760405162461bcd60e51b815260206004820152602e60248201527f5468657265206973206120707269636520666f72206368616e67696e6720796f60448201526d3ab91030ba3a3934b13aba32b99760911b606482015260840161078e565b847f071e2b5b04043a73f97c13dbdcd19e7f2d114c2277c6f5d4c6403e547756e45d85856040516116ef929190612a1a565b60405180910390a25050505050565b600a546001600160a01b031633146117285760405162461bcd60e51b815260040161078e90612abd565b6001600160a01b03811661178d5760405162461bcd60e51b815260206004820152602660248201527f4f776e61626c653a206e6577206f776e657220697320746865207a65726f206160448201526564647265737360d01b606482015260840161078e565b6107b781611d11565b60006001600160e01b0319821663780e9d6360e01b148061075c575061075c82611f62565b6117ce600a54600160a01b900460ff1690565b1561180e5760405162461bcd60e51b815260206004820152601060248201526f14185d5cd8589b194e881c185d5cd95960821b604482015260640161078e565b600a805460ff60a01b1916600160a01b1790557f62e78cea01bee320cd4e420270b5ea74000d11b0c9f74754ebdbfc544b05a2586118493390565b6040516001600160a01b03909116815260200160405180910390a1565b611879600a54600160a01b900460ff1690565b6118bc5760405162461bcd60e51b815260206004820152601460248201527314185d5cd8589b194e881b9bdd081c185d5cd95960621b604482015260640161078e565b600a805460ff60a01b191690557f5db9ee0a495bf2e6ff9c91a7834c1ba4fdd244a5e8aa4e537bd38aeae4b073aa33611849565b600081815260046020526040902080546001600160a01b0319166001600160a01b038416908117909155819061192582610f4b565b6001600160a01b03167f8c5be1e5ebec7d5bd14f71427d1e84f3dd0314c0f7b2291e5b200ac8c7c3b92560405160405180910390a45050565b6000818152600260205260408120546001600160a01b03166119d75760405162461bcd60e51b815260206004820152602c60248201527f4552433732313a206f70657261746f7220717565727920666f72206e6f6e657860448201526b34b9ba32b73a103a37b5b2b760a11b606482015260840161078e565b60006119e283610f4b565b9050806001600160a01b0316846001600160a01b03161480611a1d5750836001600160a01b0316611a1284610885565b6001600160a01b0316145b80611a4d57506001600160a01b0380821660009081526005602090815260408083209388168352929052205460ff165b949350505050565b826001600160a01b0316611a6882610f4b565b6001600160a01b031614611ad05760405162461bcd60e51b815260206004820152602960248201527f4552433732313a207472616e73666572206f6620746f6b656e2074686174206960448201526839903737ba1037bbb760b91b606482015260840161078e565b6001600160a01b038216611b325760405162461bcd60e51b8152602060048201526024808201527f4552433732313a207472616e7366657220746f20746865207a65726f206164646044820152637265737360e01b606482015260840161078e565b611b3d838383611fb2565b611b486000826118f0565b6001600160a01b0383166000908152600360205260408120805460019290611b71908490612bb2565b90915550506001600160a01b0382166000908152600360205260408120805460019290611b9f908490612b67565b909155505060008181526002602052604080822080546001600160a01b0319166001600160a01b0386811691821790925591518493918716917fddf252ad1be2c89b69c2b068fc378daa952ba7f163c4a11628f55a4df523b3ef91a4505050565b60006115558284612b93565b6000610f46600b5490565b6000611c21611c0c565b9050611c31600b80546001019055565b611c3b8282611fbd565b60405181907f22cd2e2b3a93eacc03b35e195001b58e39ccbe011e621dd8cb3f7ce2966adc7790600090a25050565b6000611c7582610f4b565b9050611c8381600084611fb2565b611c8e6000836118f0565b6001600160a01b0381166000908152600360205260408120805460019290611cb7908490612bb2565b909155505060008281526002602052604080822080546001600160a01b0319169055518391906001600160a01b038416907fddf252ad1be2c89b69c2b068fc378daa952ba7f163c4a11628f55a4df523b3ef908390a45050565b600a80546001600160a01b038381166001600160a01b0319831681179093556040519116919082907f8be0079c531659141344cd1fd0a4f28419497f9722a3daafe3b4186f6b6457e090600090a35050565b60006115558284612b7f565b6000826001600160a01b03168260405160006040518083038185875af1925050503d8060008114611dbc576040519150601f19603f3d011682016040523d82523d6000602084013e611dc1565b606091505b5050905080610a2b5760405162461bcd60e51b815260206004820152601060248201526f2a3930b739b332b9103330b4b632b21760811b604482015260640161078e565b611e10848484611a55565b611e1c84848484611fd7565b610d045760405162461bcd60e51b815260040161078e90612a48565b6060600d805461080290612bf5565b606081611e6c57506040805180820190915260018152600360fc1b602082015261075f565b8160005b8115611e965780611e8081612c30565b9150611e8f9050600a83612b7f565b9150611e70565b60008167ffffffffffffffff811115611ebf57634e487b7160e01b600052604160045260246000fd5b6040519080825280601f01601f191660200182016040528015611ee9576020820181803683370190505b5090505b8415611a4d57611efe600183612bb2565b9150611f0b600a86612c4b565b611f16906030612b67565b60f81b818381518110611f3957634e487b7160e01b600052603260045260246000fd5b60200101906001600160f81b031916908160001a905350611f5b600a86612b7f565b9450611eed565b60006001600160e01b031982166380ac58cd60e01b1480611f9357506001600160e01b03198216635b5e139f60e01b145b8061075c57506301ffc9a760e01b6001600160e01b031983161461075c565b610a2b8383836120e4565b610f38828260405180602001604052806000815250612163565b60006001600160a01b0384163b156120d957604051630a85bd0160e11b81526001600160a01b0385169063150b7a029061201b903390899088908890600401612986565b602060405180830381600087803b15801561203557600080fd5b505af1925050508015612065575060408051601f3d908101601f1916820190925261206291810190612838565b60015b6120bf573d808015612093576040519150601f19603f3d011682016040523d82523d6000602084013e612098565b606091505b5080516120b75760405162461bcd60e51b815260040161078e90612a48565b805181602001fd5b6001600160e01b031916630a85bd0160e11b149050611a4d565b506001949350505050565b6120ef838383612196565b612102600a54600160a01b900460ff1690565b15610a2b5760405162461bcd60e51b815260206004820152602b60248201527f4552433732315061757361626c653a20746f6b656e207472616e73666572207760448201526a1a1a5b19481c185d5cd95960aa1b606482015260840161078e565b61216d8383612253565b61217a6000848484611fd7565b610a2b5760405162461bcd60e51b815260040161078e90612a48565b6001600160a01b0383166121f1576121ec81600880546000838152600960205260408120829055600182018355919091527ff3f7a9fe364faab93b216da50a3214154f22a0a2b415b23a84c8169e8b636ee30155565b612214565b816001600160a01b0316836001600160a01b0316146122145761221483826123a1565b6001600160a01b0382166122305761222b8161243e565b610a2b565b826001600160a01b0316826001600160a01b031614610a2b57610a2b8282612517565b6001600160a01b0382166122a95760405162461bcd60e51b815260206004820181905260248201527f4552433732313a206d696e7420746f20746865207a65726f2061646472657373604482015260640161078e565b6000818152600260205260409020546001600160a01b03161561230e5760405162461bcd60e51b815260206004820152601c60248201527f4552433732313a20746f6b656e20616c7265616479206d696e74656400000000604482015260640161078e565b61231a60008383611fb2565b6001600160a01b0382166000908152600360205260408120805460019290612343908490612b67565b909155505060008181526002602052604080822080546001600160a01b0319166001600160a01b03861690811790915590518392907fddf252ad1be2c89b69c2b068fc378daa952ba7f163c4a11628f55a4df523b3ef908290a45050565b600060016123ae84610fc2565b6123b89190612bb2565b60008381526007602052604090205490915080821461240b576001600160a01b03841660009081526006602090815260408083208584528252808320548484528184208190558352600790915290208190555b5060009182526007602090815260408084208490556001600160a01b039094168352600681528383209183525290812055565b60085460009061245090600190612bb2565b6000838152600960205260408120546008805493945090928490811061248657634e487b7160e01b600052603260045260246000fd5b9060005260206000200154905080600883815481106124b557634e487b7160e01b600052603260045260246000fd5b60009182526020808320909101929092558281526009909152604080822084905585825281205560088054806124fb57634e487b7160e01b600052603160045260246000fd5b6001900381819060005260206000200160009055905550505050565b600061252283610fc2565b6001600160a01b039093166000908152600660209081526040808320868452825280832085905593825260079052919091209190915550565b82805461256790612bf5565b90600052602060002090601f01602090048101928261258957600085556125cf565b82601f106125a257805160ff19168380011785556125cf565b828001600101855582156125cf579182015b828111156125cf5782518255916020019190600101906125b4565b506125db9291506125df565b5090565b5b808211156125db57600081556001016125e0565b600067ffffffffffffffff8084111561260f5761260f612c8b565b604051601f8501601f19908116603f0116810190828211818310171561263757612637612c8b565b8160405280935085815286868601111561265057600080fd5b858560208301376000602087830101525050509392505050565b80356001600160a01b038116811461075f57600080fd5b8035801515811461075f57600080fd5b600082601f8301126126a1578081fd5b611555838335602085016125f4565b6000602082840312156126c1578081fd5b6115558261266a565b600080604083850312156126dc578081fd5b6126e58361266a565b91506126f36020840161266a565b90509250929050565b600080600060608486031215612710578081fd5b6127198461266a565b92506127276020850161266a565b9150604084013590509250925092565b6000806000806080858703121561274c578081fd5b6127558561266a565b93506127636020860161266a565b925060408501359150606085013567ffffffffffffffff811115612785578182fd5b8501601f81018713612795578182fd5b6127a4878235602084016125f4565b91505092959194509250565b600080604083850312156127c2578182fd5b6127cb8361266a565b91506126f360208401612681565b600080604083850312156127eb578182fd5b6127f48361266a565b946020939093013593505050565b600060208284031215612813578081fd5b61155582612681565b60006020828403121561282d578081fd5b813561155581612ca1565b600060208284031215612849578081fd5b815161155581612ca1565b600060208284031215612865578081fd5b813567ffffffffffffffff81111561287b578182fd5b611a4d84828501612691565b600060208284031215612898578081fd5b5035919050565b600080604083850312156128b1578182fd5b823591506126f36020840161266a565b6000806000606084860312156128d5578283fd5b83359250602084013567ffffffffffffffff808211156128f3578384fd5b6128ff87838801612691565b93506040860135915080821115612914578283fd5b5061292186828701612691565b9150509250925092565b60008151808452612943816020860160208601612bc9565b601f01601f19169290920160200192915050565b60008351612969818460208801612bc9565b83519083019061297d818360208801612bc9565b01949350505050565b6001600160a01b03858116825284166020820152604081018390526080606082018190526000906129b99083018461292b565b9695505050505050565b6020808252825182820181905260009190848201906040850190845b818110156129fb578351835292840192918401916001016129df565b50909695505050505050565b600060208252611555602083018461292b565b600060408252612a2d604083018561292b565b8281036020840152612a3f818561292b565b95945050505050565b60208082526032908201527f4552433732313a207472616e7366657220746f206e6f6e20455243373231526560408201527131b2b4bb32b91034b6b83632b6b2b73a32b960711b606082015260800190565b60208082526009908201526813585e081b1a5b5a5d60ba1b604082015260600190565b6020808252818101527f4f776e61626c653a2063616c6c6572206973206e6f7420746865206f776e6572604082015260600190565b6020808252600a908201526914d85b1948195b99195960b21b604082015260600190565b60208082526031908201527f4552433732313a207472616e736665722063616c6c6572206973206e6f74206f6040820152701ddb995c881b9bdc88185c1c1c9bdd9959607a1b606082015260800190565b60008219821115612b7a57612b7a612c5f565b500190565b600082612b8e57612b8e612c75565b500490565b6000816000190483118215151615612bad57612bad612c5f565b500290565b600082821015612bc457612bc4612c5f565b500390565b60005b83811015612be4578181015183820152602001612bcc565b83811115610d045750506000910152565b600281046001821680612c0957607f821691505b60208210811415612c2a57634e487b7160e01b600052602260045260246000fd5b50919050565b6000600019821415612c4457612c44612c5f565b5060010190565b600082612c5a57612c5a612c75565b500690565b634e487b7160e01b600052601160045260246000fd5b634e487b7160e01b600052601260045260246000fd5b634e487b7160e01b600052604160045260246000fd5b6001600160e01b0319811681146107b757600080fdfea2646970667358221220636df12efbb479420aac1c9cf600d0f2e7b9419512a30115133275e443ae62a464736f6c634300080200334f776e61626c653a2063616c6c6572206973206e6f7420746865206f776e6572",
  "immutableReferences": {},
  "source": "pragma solidity 0.8.2;\r\n\r\nimport \"@openzeppelin/contracts/token/ERC721/ERC721.sol\";\r\nimport \"@openzeppelin/contracts/token/ERC721/extensions/ERC721Burnable.sol\";\r\nimport \"@openzeppelin/contracts/token/ERC721/extensions/ERC721Enumerable.sol\";\r\nimport \"@openzeppelin/contracts/token/ERC721/extensions/ERC721Pausable.sol\";\r\nimport \"@openzeppelin/contracts/token/ERC721/extensions/ERC721URIStorage.sol\";\r\nimport \"@openzeppelin/contracts/access/Ownable.sol\";\r\nimport \"@openzeppelin/contracts/utils/math/SafeMath.sol\";\r\nimport \"@openzeppelin/contracts/utils/Counters.sol\";\r\n\r\ncontract MishkaDinos is ERC721Enumerable, Ownable, ERC721Burnable, ERC721Pausable {\r\n\r\n    using SafeMath for uint256;\r\n    using Counters for Counters.Counter;\r\n\r\n    Counters.Counter private _tokenIdTracker;\r\n    bool private presale;\r\n    bool private sale;\r\n\r\n    uint256 public constant MAX_ITEMS = 10000;\r\n    uint256 public constant MAX_PRESALE_ITEMS = 1000;\r\n    uint256 public constant MAX_RESERVE = 100;\r\n    uint256 public constant PRICE = 6E16; // 0.06 ETH\r\n    uint256 public constant RENAME_PRICE = 1E16; // 0.01 ETH\r\n    uint256 public constant MAX_MINT = 20;\r\n    uint256 public constant MAX_MINT_PRESALE = 2;\r\n    address public constant creatorAddress = 0x362C378e0855545C521b62bdEDeff54a8a4C677A;\r\n    address public constant devAddress = 0x362C378e0855545C521b62bdEDeff54a8a4C677A;\r\n    string public baseTokenURI;\r\n\r\n    event CreateChibi(uint256 indexed id);\r\n    event AttributeChanged(uint256 indexed _tokenId, string _key, string _value);\r\n\r\n    constructor(string memory baseURI) ERC721(\"Mishka DINOS\", \"MISHKADINOS\") {\r\n        setBaseURI(baseURI);\r\n        pause(true);\r\n        presale = false;\r\n        sale = false;\r\n    }\r\n\r\n    modifier saleIsOpen {\r\n        require(_totalSupply() <= MAX_ITEMS, \"Sale ended\");\r\n        if (_msgSender() != owner()) {\r\n            require(!paused(), \"Pausable: paused\");\r\n        }\r\n        _;\r\n    }\r\n\r\n    function _totalSupply() internal view returns (uint) {\r\n        return _tokenIdTracker.current();\r\n    }\r\n\r\n    function totalMint() public view returns (uint256) {\r\n        return _totalSupply();\r\n    }\r\n\r\n    function mintReserve(uint256 _count, address _to) public onlyOwner {\r\n        uint256 total = _totalSupply();\r\n        require(total <= MAX_ITEMS, \"Sale ended\");\r\n        require(total + _count <= MAX_ITEMS, \"Max limit\");\r\n        for (uint256 i = 0; i < _count; i++) {\r\n            _mintAnElement(_to);\r\n        }\r\n    }\r\n\r\n    function presaleMint(address _to, uint256 _count) public payable {\r\n        uint256 total = _totalSupply();\r\n        require(presale == true, \"Presale has not yet started\");\r\n        require(total <= MAX_PRESALE_ITEMS, \"Presale ended\");\r\n        require(total + _count <= MAX_PRESALE_ITEMS, \"Max limit\");\r\n        require(_count <= MAX_MINT_PRESALE, \"Exceeds number\");\r\n        require(msg.value >= price(_count), \"Value below price\");\r\n\r\n        for (uint256 i = 0; i < _count; i++) {\r\n            _mintAnElement(_to);\r\n        }\r\n    }\r\n\r\n    function mint(address _to, uint256 _count) public payable saleIsOpen {\r\n        uint256 total = _totalSupply();\r\n        require(sale == true, \"Sale has not yet started\");\r\n        require(total <= MAX_ITEMS, \"Sale ended\");\r\n        require(total + _count <= MAX_ITEMS, \"Max limit\");\r\n        require(_count <= MAX_MINT, \"Exceeds number\");\r\n        require(msg.value >= price(_count), \"Value below price\");\r\n\r\n        for (uint256 i = 0; i < _count; i++) {\r\n            _mintAnElement(_to);\r\n        }\r\n    }\r\n\r\n    function _mintAnElement(address _to) private {\r\n        uint id = _totalSupply();\r\n        _tokenIdTracker.increment();\r\n        _safeMint(_to, id);\r\n        emit CreateChibi(id);\r\n    }\r\n\r\n    function price(uint256 _count) public pure returns (uint256) {\r\n        return PRICE.mul(_count);\r\n    }\r\n\r\n    function _baseURI() internal view virtual override returns (string memory) {\r\n        return baseTokenURI;\r\n    }\r\n\r\n    function setBaseURI(string memory baseURI) public onlyOwner {\r\n        baseTokenURI = baseURI;\r\n    }\r\n\r\n    function walletOfOwner(address _owner) external view returns (uint256[] memory) {\r\n        uint256 tokenCount = balanceOf(_owner);\r\n\r\n        uint256[] memory tokenIds = new uint256[](tokenCount);\r\n        for (uint256 i = 0; i < tokenCount; i++) {\r\n            tokenIds[i] = tokenOfOwnerByIndex(_owner, i);\r\n        }\r\n\r\n        return tokenIds;\r\n    }\r\n\r\n    function pause(bool val) public onlyOwner {\r\n        if (val == true) {\r\n            _pause();\r\n            return;\r\n        }\r\n        _unpause();\r\n    }\r\n\r\n    function startPresale() public onlyOwner {\r\n        presale = true;\r\n    }\r\n\r\n    function startSale() public onlyOwner {\r\n        sale = true;\r\n    }\r\n\r\n    function changeAttribute(uint256 tokenId, string memory key, string memory value) public payable {\r\n        address owner = ERC721.ownerOf(tokenId);\r\n        require(_msgSender() == owner, \"This is not your Chibi.\");\r\n\r\n        uint256 amountPaid = msg.value;\r\n        require(amountPaid == RENAME_PRICE, \"There is a price for changing your attributes.\");\r\n\r\n        emit AttributeChanged(tokenId, key, value);\r\n    }\r\n\r\n    function withdrawAll() public payable onlyOwner {\r\n        uint256 balance = address(this).balance;\r\n        require(balance > 0);\r\n        _widthdraw(devAddress, balance.mul(40).div(100));\r\n        _widthdraw(creatorAddress, address(this).balance);\r\n    }\r\n\r\n    function _widthdraw(address _address, uint256 _amount) private {\r\n        (bool success,) = _address.call{value : _amount}(\"\");\r\n        require(success, \"Transfer failed.\");\r\n    }\r\n\r\n    function _beforeTokenTransfer(\r\n        address from,\r\n        address to,\r\n        uint256 tokenId\r\n    ) internal virtual override(ERC721, ERC721Enumerable, ERC721Pausable) {\r\n        super._beforeTokenTransfer(from, to, tokenId);\r\n    }\r\n\r\n    function supportsInterface(bytes4 interfaceId) public view virtual override(ERC721, ERC721Enumerable) returns (bool) {\r\n        return super.supportsInterface(interfaceId);\r\n    }\r\n}",
  "sourcePath": "C:/Users/Rauf/Desktop/task/mishka-nft/contracts/MishkaDino.sol",
  "compiler": {
    "name": "solc",
    "version": "0.8.2+commit.661d1103.Emscripten.clang"
  },
  "schemaVersion": "3.3.4",
  "updatedAt": "2021-09-10T02:28:26.992Z",
  "networkType": "ethereum",
  "devdoc": {
    "kind": "dev",
    "methods": {
      "approve(address,uint256)": {
        "details": "See {IERC721-approve}."
      },
      "balanceOf(address)": {
        "details": "See {IERC721-balanceOf}."
      },
      "burn(uint256)": {
        "details": "Burns `tokenId`. See {ERC721-_burn}. Requirements: - The caller must own `tokenId` or be an approved operator."
      },
      "getApproved(uint256)": {
        "details": "See {IERC721-getApproved}."
      },
      "isApprovedForAll(address,address)": {
        "details": "See {IERC721-isApprovedForAll}."
      },
      "name()": {
        "details": "See {IERC721Metadata-name}."
      },
      "owner()": {
        "details": "Returns the address of the current owner."
      },
      "ownerOf(uint256)": {
        "details": "See {IERC721-ownerOf}."
      },
      "paused()": {
        "details": "Returns true if the contract is paused, and false otherwise."
      },
      "renounceOwnership()": {
        "details": "Leaves the contract without owner. It will not be possible to call `onlyOwner` functions anymore. Can only be called by the current owner. NOTE: Renouncing ownership will leave the contract without an owner, thereby removing any functionality that is only available to the owner."
      },
      "safeTransferFrom(address,address,uint256)": {
        "details": "See {IERC721-safeTransferFrom}."
      },
      "safeTransferFrom(address,address,uint256,bytes)": {
        "details": "See {IERC721-safeTransferFrom}."
      },
      "setApprovalForAll(address,bool)": {
        "details": "See {IERC721-setApprovalForAll}."
      },
      "symbol()": {
        "details": "See {IERC721Metadata-symbol}."
      },
      "tokenByIndex(uint256)": {
        "details": "See {IERC721Enumerable-tokenByIndex}."
      },
      "tokenOfOwnerByIndex(address,uint256)": {
        "details": "See {IERC721Enumerable-tokenOfOwnerByIndex}."
      },
      "tokenURI(uint256)": {
        "details": "See {IERC721Metadata-tokenURI}."
      },
      "totalSupply()": {
        "details": "See {IERC721Enumerable-totalSupply}."
      },
      "transferFrom(address,address,uint256)": {
        "details": "See {IERC721-transferFrom}."
      },
      "transferOwnership(address)": {
        "details": "Transfers ownership of the contract to a new account (`newOwner`). Can only be called by the current owner."
      }
    },
    "version": 1
  },
  "userdoc": {
    "kind": "user",
    "methods": {},
    "version": 1
  }
}